:100000000D94FA000D941F010D941F010D941F0112
:100010000D941F010D941F010D941F010D941F01DC
:100020000D941F010D941F010D941F010D941F01CC
:100030000D941F010D941F010D941F010D941F01BC
:100040000D941F010D941F010D941F010D941F01AC
:100050000D941F010D941F010D941F010D941F019C
:100060000D941F010D941F010D941F010D941F018C
:100070000D941F010D941F010D941F010D941F017C
:100080000D941F010D941F010D941F010D941F016C
:100090000D941F010D941F010D941F010D941F015C
:1000A0000D941F010D941F010D941F010D941F014C
:1000B0000D941F010D941F010D941F010D941F013C
:1000C0000D941F010D941F010D941F010D941F012C
:1000D0000D941F010D941F010D941F010D941F011C
:1000E0000D941F010D941F010D941F010D941F010C
:1000F0000D941F010D941F010D941F010D941F01FC
:100100000D941F010D941F010D941F010D941F01EB
:100110000D941F010D941F010D941F010D941F01DB
:100120000D941F010D941F010D941F010D941F01CB
:100130000D941F010D941F010D941F010D941F01BB
:100140000D941F010D941F010D941F010D941F01AB
:100150000D941F010D941F010D941F010D941F019B
:100160000D941F010D941F010D941F010D941F018B
:100170000D941F010D941F010D941F010D941F017B
:100180000D941F010D941F010D941F010D941F016B
:100190000D941F010D941F010D941F010D941F015B
:1001A0000D941F010D941F010D941F010D941F014B
:1001B0000D941F010D941F010D941F010D941F013B
:1001C0000D941F010D941F010D941F010D941F012B
:1001D0000D941F010D941F010D941F010D941F011B
:1001E0000D941F010D941F010D941F010D941F010B
:1001F0000D941F0111241FBECFEFDFE3DEBFCDBF83
:1002000001E00CBF18BE19BE1ABE1BBE10E2A0E072
:10021000B0E2EEEAFFE002E00BBF02C007900D92F1
:10022000A431B107D9F712E2A4E1B0E201C01D92F6
:10023000A434B107E1F70F947C020D94D5070D9417
:10024000000088ED84BF81E080937900FFCF07C074
:100250000197EFE3FFE13197F1F700C0000000974D
:10026000B9F70895282F2595259525952595205D85
:100270008F708A3074F0895A9091A10995FFFCCF54
:100280002093A0099091A10995FFFCCF8093A0092C
:100290000895805DF1CF9091A10995FFFCCF8093E7
:1002A000A00908958091E4078D7FE0EEF7E0848354
:1002B00080E090E0DC010BC00196A11DB11D8130F2
:1002C00029E092072DE3A20720E0B20769F0209110
:1002D000A10927FFF1CF8091E4078260E0EEF7E00B
:1002E00084838091A0090895E0911D20F0911E2043
:1002F000199588ED84BF81E080937900FFCF0F943A
:1003000052019091A10995FFFCCF8093A0098136FD
:1003100024F480330CF08053089587550895CF93CB
:100320000F947F01C82F0F947F01C295C07F8C0F5F
:10033000CF910895CF93C82F882321F00F945201B5
:10034000C150E1F7CF910895CF93C82F0F94520178
:10035000803249F080911C208F5F80931C20853073
:10036000B9F0CF9108958091A10985FFFCCF84E178
:100370008093A0098091A10985FFFCCFC093A009BB
:100380008091A10985FFFCCF80E18093A009E9CF8E
:10039000E0911D20F0911E20199588ED84BF81E029
:1003A00080937900FFCF0F945201803241F0809109
:1003B0001C208F5F80931C20853081F008958091F0
:1003C000A10985FFFCCF84E18093A0098091A10958
:1003D00085FFFCCF80E18093A0090895E0911D2066
:1003E000F0911E20199588ED84BF81E080937900FB
:1003F000FFCFAAECB1E08C93FB0184911C9208958D
:100400008091CF0187FDFCCF1092CA0108950F9310
:100410001092CD0180E090E0DC0136E2FF93EF9393
:100420000F932F932BB7ABBFFC013093CA010DE99B
:1004300000933400E8952BBF2F910F91EF91FF911E
:100440000F910895FF93EF931F920F922F932BB765
:100450002F9322272BBFFC01062E142E23E220937C
:10046000CA012DE920933400E8952F912BBF2F91DD
:100470000F901F90EF91FF910895EF92FF920F93CD
:100480001F93CF93DF937B011092CD0160FF03C0D8
:100490000894E11CF11CE114F10479F0C82FD92F64
:1004A00000E010E0688149812296C8010F94220281
:1004B0000E5F1F4F0E151F05A8F3DF91CF911F91FF
:1004C0000F91FF90EF9008950F931092CD0135E2B8
:1004D000FF93EF930F932F932BB78BBFFB013093B9
:1004E000CA010DE900933400E8952BBF2F910F91BD
:1004F000EF91FF910F9108952F923F924F925F924B
:100500006F927F928F929F92AF92BF92CF92DF9223
:10051000EF92FF920F931F93DF93CF93CDB7DEB788
:100520006297CDBFDEBF20917800322F3F738FE3FB
:100530008093780088ED84BF91E09093800084BF21
:1005400090938100332321F484BF90937900FFCFEF
:10055000322F387084BF80EC8093A20080915000CD
:100560008660809350008091420080FD34C080916D
:1005700040008770813091F08FEF9FE702C00197B4
:1005800021F02091510021FFFACF8091510081FF8D
:1005900034C088ED84BF81E08093400080914100A9
:1005A000882321F088ED84BF109241008091500093
:1005B000867E809350008FEF9FEF2FEF03C0215076
:1005C00009F47FC34091510042FFF9CF10925600C9
:1005D00081E0809360008FEF9FEF2FEF03C02150E9
:1005E00009F400C44091510042FFF9CF80915100BD
:1005F00082FF03C082E080934300332309F0ECC301
:10060000E0E6F6E088E1828B809164068460848372
:10061000809160068B7F80936006138A80916406C8
:100620008860848380916006886080936006E0EA39
:10063000F9E084E0848383E0858387E8868380EE25
:1006400087838CE18483138278941092F1078091E0
:10065000E00782608093E00713E020EEE22E27E0BF
:10066000F22E8091E4078260D70114968C9384E681
:1006700090E00F9427018091E4078D7FF701848338
:1006800084E690E00F942701115059F792E0C92EAB
:10069000D12C80EC582E04E0802E912C17E0A12E56
:1006A000E1E0F0E04490E0E0F0E03490F6012490E6
:1006B000B3E06B2E712C49863A864B863C86422CE1
:1006C0000F94520100E010E020E030E00023B1F48C
:1006D0008B31F1F701E01BE179010F9452010330F6
:1006E00091F0043048F5013011F10230F0F0109231
:1006F000192080931A20182703E0EFCF79010F9477
:100700005201033071F7482F50E0209119203091A9
:100710001A20242B352B2093192030931A201827C8
:1007200004E0DBCF8E3009F48EC09701D1CF8093E7
:100730001820182702E0D1CF053009F489C0053010
:1007400088F39701063009F47AC0073009F0BECF6C
:1007500060912120633109F46DC1643108F08AC0D1
:10076000663009F495C1673008F0F8C1623009F4C9
:1007700011C1633009F44BC1613009F412C1C09258
:100780001920D0921A20509222208091A10985FF31
:10079000FCCF8BE18093A009509118208091A10992
:1007A00085FFFCCF5093A0098091192090911A20C9
:1007B000492F392F2091A10925FFFCCF3093A009A3
:1007C000682F382F2091A10925FFFCCF3093A00975
:1007D0002091A10925FFFCCF2EE02093A00935E14F
:1007E000352736273427009789F0E1E2F0E241917E
:1007F0002091A10925FFFCCF4093A0093427019740
:100800008093192090931A20009789F78091A1096D
:1008100085FFFCCF3093A0095F5F50931820809133
:100820001C20882309F44CCFE0911D20F0911E205C
:10083000199588ED84BF81E080937900FFCF8117FF
:1008400009F046CF85CF182705E0EE24FF2445CFD9
:10085000F701EF5DFF4D80830894E11CF11C182720
:100860008091192090911A20E816F90609F035CFE9
:1008700006E033CF683109F4B7C1693108F075C1BA
:10088000653109F4D7C0653118F0663109F077CFCA
:10089000B0912220BE831D8280912320E82FF0E0BA
:1008A0002D813E81E22BF32BE98BFA8BCF0103964E
:1008B0008093192090931A20E0901420F090152036
:1008C000009116201091172030E0E31630E0F30677
:1008D00030E8030730E0130708F4ADC1D801C701C1
:1008E00080509040A048B04010922220643109F41A
:1008F000B4C1D801C701B695A795979587951C01F6
:1009000043E250E269897A89C1014F87588B6D872C
:100910007E870F94A2074F855889DA018D93AD0128
:100920009D0182E090E0A0E0B0E0E80EF91E0A1F11
:100930001B1FE0921420F0921520009316201093B4
:1009400017200894211C311C6D857E8561507040F4
:10095000D9F6D9011C9219CF80FF04C01C0108945C
:10096000211C311C203080E0380782E0480780E0FD
:10097000580708F4F5C1C101A0E0B0E08E0D9F1D3D
:10098000A01FB11F8093142090931520A0931620D0
:10099000B0931720C0921920D0921A2010922220D2
:1009A000F4CE21E130E02093192030931A201092E8
:1009B000222038E03093232041E44093242056E560
:1009C0005093252082E58093262099E49093272058
:1009D000A3E5A093282080E5809329208FE58093CC
:1009E0002A2082E380932B2080E280932C2088E5CC
:1009F00080932D208DE480932E2085E680932F20F8
:100A000087E68093302081E680933120BECEE0914E
:100A10002220E058E33108F09FC0F0E0E050F04EB3
:100A200080816092192070921A2010922220809367
:100A30002320ABCEB0912220BC831B828091232047
:100A400090E0EB81FC818E2B9F2B1C01E090142009
:100A5000F09015200091162010911720F0E0EF166D
:100A6000F0E0FF06F0E80F07F0E01F0708F471C0A0
:100A7000A80197012050304040485040633109F4AC
:100A80006BCF16950795F794E7940BE210E25DC0E3
:100A90002091222030E040E050E0522F44273327BD
:100AA00022278091232090E0A0E0B0E0DC0199278C
:100AB0008827282B392B4A2B5B2B8091252090E00F
:100AC000A0E0B0E0282B392B4A2B5B2B809124200F
:100AD00090E0A0E0B0E0BA2FA92F982F8827282B0C
:100AE000392B4A2B5B2B220F331F441F551F20939A
:100AF0001420309315204093162050931720C09255
:100B00001920D0921A20109222203FCED8016D9148
:100B10008D01C7010F94B207809114209091152088
:100B2000A0911620B09117200296A11DB11D8093AF
:100B3000142090931520A0931620B09317200894AA
:100B4000E11CF11C08942108310821143104F1F64C
:100B500021CFA801970192CF80E063CF603108F4E4
:100B60000ECE623108F416CF0ACE6A3109F466C09F
:100B70006A3108F457C06B3109F44BC06D3109F08C
:100B8000FECD80912520803309F430C1803209F4F4
:100B900072C1883209F49BC0982F907579F0803526
:100BA00009F4C4C1883509F4BBC1803409F448C1D3
:100BB000883409F426C18D3409F484C1BB24E7E0EC
:100BC000F0E0E0931920F0931A2010922220109266
:100BD0002320809125208093242010922520B092FC
:100BE000262010922720D1CD80912320803509F432
:100BF00087C1A092CA018B851092CA0180921920E8
:100C000090921A2010922220809323201092242068
:100C1000BCCD809125208823F1F0813009F455C0A6
:100C20008CE4ECCF6092192070921A20109222204E
:100C300010922320AACDD801C70156CE8092192048
:100C400090921A20109222208091D001809323202C
:100C5000109224209ACD8EE1D1CF23E230E269892F
:100C60007A891901A80197011FC00BB6ABBFFC011F
:100C7000079116910BBE0296A11DB11DF1010083D3
:100C80001183E2E0F0E02E0E3F1E2E5F3F4F4F4FEC
:100C90005F4F2093142030931520409316205093DB
:100CA00017206250704059F08030E0E09E07E2E08B
:100CB000AE07E0E0BE07C8F200E010E0DFCF910130
:100CC00048CE019709F079CC81CC87E997CF209164
:100CD0001420309115204091162050911720F9E0F2
:100CE000220F331F441F551FFA95D1F7609123201F
:100CF00070E02F5F3F4F4F4F5F4F8091272090E074
:100D0000880F991FE0912620EE0FEA831982A981AE
:100D1000BA818A0F9B1FA0E0B0E0280F391F4A1F3D
:100D20005B1FCB0103968093192090931A20109299
:100D30002220FB01EF5DFF4D12820BB64BBFF90184
:100D400027910BBEFB01EE5DFF4D20836115710500
:100D500009F41BCD1292B0E2E232FB07D9F715CDB0
:100D60008091CF0187FDFCCF1092CA012D873E876D
:100D70004F87588B0F9407022D853E854F855889E4
:100D80008091CF0187FDFCCF1092CA018BE290E2E7
:100D9000B1012D873E874F87588B0F943D022D85DB
:100DA0003E854F8558898091CF0187FDFCCF1092F9
:100DB000CA01CA01B9010F9464028091CF0187FD75
:100DC000FCCF1092CA01E0901420F0901520009101
:100DD000162010911720CFCDE0911D20F0911E20FC
:100DE00019950ECC019709F401CCF7CB80912720FF
:100DF000882309F4A4C0813009F49EC08CE4B82E85
:100E0000DECE2091282030E040E050E0542F432FE8
:100E1000322F22278091142090911520A091162026
:100E2000B09117209070282B392B4A2B5B2B2093E5
:100E30001420309315204093162050931720BFCED6
:100E40002091282030E040E050E0809114209091E3
:100E50001520A0911620B09117209070282B392BC7
:100E60004A2B5B2B2093142030931520409316209F
:100E700050931720A4CE8091142090911520A0911A
:100E80001620B091172059E0880F991FAA1FBB1F89
:100E90005A95D1F76091232070E02091272030E00F
:100EA000220F331F40912620440F48871F82EF8175
:100EB000F8852E0F3F1F40E050E0280F391F4A1FD2
:100EC0005B1F2FCF2091282030E040E050E0A901A7
:100ED000332722278091142090911520A09116206D
:100EE000B0911720A070282B392B4A2B5B2B209315
:100EF00014203093152040931620509317205FCE76
:100F000080912420883031F0A092CA018C85109203
:100F1000CA0174CEA092CA01842D1092CA016ECE6D
:100F2000A092CA01B9841092CA0149CEA092CA0106
:100F3000BA841092CA0143CEA7E9BA2E40CE9EE1F0
:100F4000B92E3DCE03D0808199270895E0ECF1E0E1
:100F5000378537FDFDCF348538603487FC01E0509C
:100F6000F04F0895262FE0ECF1E0378537FDFDCFF7
:100F70003485377F3487378531FF09C036E33287C0
:100F800038ED34BF31E03387378537FDFDCF33E3AC
:100F90003287808391831282248325E3228728ED80
:0E0FA00031E024BF338701960895F894FFCF07
:100FAE000000000000000000000000000000000033
:040FBE000F020A0014
:0400000320000000D9
:00000001FF
